{
	"_format": "hh-sol-artifact-1",
	"contractName": "Brandinate",
	"sourceName": "contracts/Brandinate.sol",
	"abi": [
		{
			"inputs": [
				{
					"internalType": "address",
					"name": "registry",
					"type": "address"
				}
			],
			"stateMutability": "nonpayable",
			"type": "constructor"
		},
		{
			"anonymous": false,
			"inputs": [
				{
					"indexed": true,
					"internalType": "address",
					"name": "owner",
					"type": "address"
				},
				{
					"indexed": true,
					"internalType": "address",
					"name": "approved",
					"type": "address"
				},
				{
					"indexed": true,
					"internalType": "uint256",
					"name": "tokenId",
					"type": "uint256"
				}
			],
			"name": "Approval",
			"type": "event"
		},
		{
			"anonymous": false,
			"inputs": [
				{
					"indexed": true,
					"internalType": "address",
					"name": "owner",
					"type": "address"
				},
				{
					"indexed": true,
					"internalType": "address",
					"name": "operator",
					"type": "address"
				},
				{
					"indexed": false,
					"internalType": "bool",
					"name": "approved",
					"type": "bool"
				}
			],
			"name": "ApprovalForAll",
			"type": "event"
		},
		{
			"anonymous": false,
			"inputs": [
				{
					"indexed": true,
					"internalType": "address",
					"name": "previousOwner",
					"type": "address"
				},
				{
					"indexed": true,
					"internalType": "address",
					"name": "newOwner",
					"type": "address"
				}
			],
			"name": "OwnershipTransferred",
			"type": "event"
		},
		{
			"anonymous": false,
			"inputs": [
				{
					"indexed": true,
					"internalType": "address",
					"name": "from",
					"type": "address"
				},
				{
					"indexed": true,
					"internalType": "address",
					"name": "to",
					"type": "address"
				},
				{
					"indexed": true,
					"internalType": "uint256",
					"name": "tokenId",
					"type": "uint256"
				}
			],
			"name": "Transfer",
			"type": "event"
		},
		{
			"inputs": [
				{
					"internalType": "address",
					"name": "to",
					"type": "address"
				},
				{
					"internalType": "uint256",
					"name": "tokenId",
					"type": "uint256"
				}
			],
			"name": "approve",
			"outputs": [],
			"stateMutability": "nonpayable",
			"type": "function"
		},
		{
			"inputs": [
				{
					"internalType": "address",
					"name": "owner",
					"type": "address"
				}
			],
			"name": "balanceOf",
			"outputs": [
				{
					"internalType": "uint256",
					"name": "",
					"type": "uint256"
				}
			],
			"stateMutability": "view",
			"type": "function"
		},
		{
			"inputs": [
				{
					"internalType": "address",
					"name": "registry",
					"type": "address"
				}
			],
			"name": "createMetadataTable",
			"outputs": [
				{
					"internalType": "uint256",
					"name": "",
					"type": "uint256"
				}
			],
			"stateMutability": "payable",
			"type": "function"
		},
		{
			"inputs": [
				{
					"internalType": "uint256",
					"name": "tokenId",
					"type": "uint256"
				}
			],
			"name": "getApproved",
			"outputs": [
				{
					"internalType": "address",
					"name": "",
					"type": "address"
				}
			],
			"stateMutability": "view",
			"type": "function"
		},
		{
			"inputs": [],
			"name": "hi",
			"outputs": [],
			"stateMutability": "nonpayable",
			"type": "function"
		},
		{
			"inputs": [
				{
					"internalType": "address",
					"name": "owner",
					"type": "address"
				},
				{
					"internalType": "address",
					"name": "operator",
					"type": "address"
				}
			],
			"name": "isApprovedForAll",
			"outputs": [
				{
					"internalType": "bool",
					"name": "",
					"type": "bool"
				}
			],
			"stateMutability": "view",
			"type": "function"
		},
		{
			"inputs": [],
			"name": "metadataURI",
			"outputs": [
				{
					"internalType": "string",
					"name": "",
					"type": "string"
				}
			],
			"stateMutability": "view",
			"type": "function"
		},
		{
			"inputs": [],
			"name": "name",
			"outputs": [
				{
					"internalType": "string",
					"name": "",
					"type": "string"
				}
			],
			"stateMutability": "view",
			"type": "function"
		},
		{
			"inputs": [],
			"name": "owner",
			"outputs": [
				{
					"internalType": "address",
					"name": "",
					"type": "address"
				}
			],
			"stateMutability": "view",
			"type": "function"
		},
		{
			"inputs": [
				{
					"internalType": "uint256",
					"name": "tokenId",
					"type": "uint256"
				}
			],
			"name": "ownerOf",
			"outputs": [
				{
					"internalType": "address",
					"name": "",
					"type": "address"
				}
			],
			"stateMutability": "view",
			"type": "function"
		},
		{
			"inputs": [],
			"name": "renounceOwnership",
			"outputs": [],
			"stateMutability": "nonpayable",
			"type": "function"
		},
		{
			"inputs": [
				{
					"internalType": "address",
					"name": "to",
					"type": "address"
				},
				{
					"internalType": "string",
					"name": "ceramic_link",
					"type": "string"
				},
				{
					"internalType": "string",
					"name": "ipfs_link",
					"type": "string"
				}
			],
			"name": "safeMint",
			"outputs": [
				{
					"internalType": "uint256",
					"name": "",
					"type": "uint256"
				}
			],
			"stateMutability": "nonpayable",
			"type": "function"
		},
		{
			"inputs": [
				{
					"internalType": "address",
					"name": "from",
					"type": "address"
				},
				{
					"internalType": "address",
					"name": "to",
					"type": "address"
				},
				{
					"internalType": "uint256",
					"name": "tokenId",
					"type": "uint256"
				}
			],
			"name": "safeTransferFrom",
			"outputs": [],
			"stateMutability": "nonpayable",
			"type": "function"
		},
		{
			"inputs": [
				{
					"internalType": "address",
					"name": "from",
					"type": "address"
				},
				{
					"internalType": "address",
					"name": "to",
					"type": "address"
				},
				{
					"internalType": "uint256",
					"name": "tokenId",
					"type": "uint256"
				},
				{
					"internalType": "bytes",
					"name": "data",
					"type": "bytes"
				}
			],
			"name": "safeTransferFrom",
			"outputs": [],
			"stateMutability": "nonpayable",
			"type": "function"
		},
		{
			"inputs": [
				{
					"internalType": "address",
					"name": "operator",
					"type": "address"
				},
				{
					"internalType": "bool",
					"name": "approved",
					"type": "bool"
				}
			],
			"name": "setApprovalForAll",
			"outputs": [],
			"stateMutability": "nonpayable",
			"type": "function"
		},
		{
			"inputs": [
				{
					"internalType": "string",
					"name": "externalURL",
					"type": "string"
				}
			],
			"name": "setExternalURL",
			"outputs": [],
			"stateMutability": "nonpayable",
			"type": "function"
		},
		{
			"inputs": [
				{
					"internalType": "bytes4",
					"name": "interfaceId",
					"type": "bytes4"
				}
			],
			"name": "supportsInterface",
			"outputs": [
				{
					"internalType": "bool",
					"name": "",
					"type": "bool"
				}
			],
			"stateMutability": "view",
			"type": "function"
		},
		{
			"inputs": [],
			"name": "symbol",
			"outputs": [
				{
					"internalType": "string",
					"name": "",
					"type": "string"
				}
			],
			"stateMutability": "view",
			"type": "function"
		},
		{
			"inputs": [
				{
					"internalType": "uint256",
					"name": "tokenId",
					"type": "uint256"
				}
			],
			"name": "tokenURI",
			"outputs": [
				{
					"internalType": "string",
					"name": "",
					"type": "string"
				}
			],
			"stateMutability": "view",
			"type": "function"
		},
		{
			"inputs": [
				{
					"internalType": "address",
					"name": "from",
					"type": "address"
				},
				{
					"internalType": "address",
					"name": "to",
					"type": "address"
				},
				{
					"internalType": "uint256",
					"name": "tokenId",
					"type": "uint256"
				}
			],
			"name": "transferFrom",
			"outputs": [],
			"stateMutability": "nonpayable",
			"type": "function"
		},
		{
			"inputs": [
				{
					"internalType": "address",
					"name": "newOwner",
					"type": "address"
				}
			],
			"name": "transferOwnership",
			"outputs": [],
			"stateMutability": "nonpayable",
			"type": "function"
		}
	],
	"bytecode": "0x60c0604052600a6080908152696272616e64696e61746560b01b60a052600c906200002b90826200044d565b506040518060600160405280602a8152602001620027fc602a9139600e906200005590826200044d565b503480156200006357600080fd5b506040516200282638038062002826833981016040819052620000869162000519565b60405180604001604052806005815260200164141a5e195b60da1b8152506040518060400160405280600381526020016249544d60e81b8152508160009081620000d191906200044d565b506001620000e082826200044d565b505050620000fd620000f76200023260201b60201c565b62000236565b600980546001600160a01b0319166001600160a01b038316908117909155633a9151b030600c6200013a4662000288602090811b62000be217901c565b6040516020016200014d929190620005ec565b6040516020818303038152906040526040518363ffffffff1660e01b81526004016200017b92919062000677565b6020604051808303816000875af11580156200019b573d6000803e3d6000fd5b505050506040513d601f19601f82011682018060405250810190620001c19190620006bb565b600b81905550600c620001df466200028860201b62000be21760201c565b620001f7600b546200028860201b62000be21760201c565b6040516020016200020b93929190620006d5565b604051602081830303815290604052600a90816200022a91906200044d565b5050620007e8565b3390565b600780546001600160a01b038381166001600160a01b0319831681179093556040519116919082907f8be0079c531659141344cd1fd0a4f28419497f9722a3daafe3b4186f6b6457e090600090a35050565b606081600003620002b05750506040805180820190915260018152600360fc1b602082015290565b8160005b8115620002e05780620002c78162000740565b9150620002d89050600a8362000772565b9150620002b4565b6000816001600160401b03811115620002fd57620002fd620003a8565b6040519080825280601f01601f19166020018201604052801562000328576020820181803683370190505b5090505b8415620003a0576200034060018362000789565b91506200034f600a86620007a5565b6200035c906030620007bc565b60f81b818381518110620003745762000374620007d2565b60200101906001600160f81b031916908160001a90535062000398600a8662000772565b94506200032c565b949350505050565b634e487b7160e01b600052604160045260246000fd5b600181811c90821680620003d357607f821691505b602082108103620003f457634e487b7160e01b600052602260045260246000fd5b50919050565b601f8211156200044857600081815260208120601f850160051c81016020861015620004235750805b601f850160051c820191505b8181101562000444578281556001016200042f565b5050505b505050565b81516001600160401b03811115620004695762000469620003a8565b62000481816200047a8454620003be565b84620003fa565b602080601f831160018114620004b95760008415620004a05750858301515b600019600386901b1c1916600185901b17855562000444565b600085815260208120601f198616915b82811015620004ea57888601518255948401946001909101908401620004c9565b5085821015620005095787850151600019600388901b60f8161c191681555b5050505050600190811b01905550565b6000602082840312156200052c57600080fd5b81516001600160a01b03811681146200054457600080fd5b9392505050565b600081546200055a81620003be565b600182811680156200057557600181146200058b57620005bc565b60ff1984168752821515830287019450620005bc565b8560005260208060002060005b85811015620005b35781548a82015290840190820162000598565b50505082870194505b5050505092915050565b60005b83811015620005e3578181015183820152602001620005c9565b50506000910152565b6c021a922a0aa22902a20a126229609d1b8152600062000610600d8301856200054b565b605f60f81b815283516200062c816001840160208801620005c6565b7f2028696420696e742c2065787465726e616c5f6c696e6b20746578742c207820600192909101918201526b696e742c207920696e74293b60a01b6021820152602d01949350505050565b60018060a01b03831681526040602082015260008251806040840152620006a6816060850160208701620005c6565b601f01601f1916919091016060019392505050565b600060208284031215620006ce57600080fd5b5051919050565b6000620006e382866200054b565b605f60f81b808252855162000700816001850160208a01620005c6565b600192019182015283516200071d816002840160208801620005c6565b0160020195945050505050565b634e487b7160e01b600052601160045260246000fd5b6000600182016200075557620007556200072a565b5060010190565b634e487b7160e01b600052601260045260246000fd5b6000826200078457620007846200075c565b500490565b818103818111156200079f576200079f6200072a565b92915050565b600082620007b757620007b76200075c565b500690565b808201808211156200079f576200079f6200072a565b634e487b7160e01b600052603260045260246000fd5b61200480620007f86000396000f3fe60806040526004361061012a5760003560e01c8063715018a6116100ab578063a99dca3f1161006f578063a99dca3f1461031e578063b88d4fde14610333578063c87b56dd14610353578063e985e9c514610373578063eca81d4214610393578063f2fde38b146103b357600080fd5b8063715018a6146102a35780638da5cb5b146102b857806395d89b41146102d6578063a22cb465146102eb578063a8371acc1461030b57600080fd5b8063095ea7b3116100f2578063095ea7b3146101f557806323b872dd1461021557806342842e0e146102355780636352211e1461025557806370a082311461027557600080fd5b806301dbcd4a1461012f57806301ffc9a71461015157806303ee438c1461018657806306fdde03146101a8578063081812fc146101bd575b600080fd5b34801561013b57600080fd5b5061014f61014a366004611440565b6103d3565b005b34801561015d57600080fd5b5061017161016c3660046114c8565b61047c565b60405190151581526020015b60405180910390f35b34801561019257600080fd5b5061019b6104ce565b60405161017d919061153c565b3480156101b457600080fd5b5061019b610505565b3480156101c957600080fd5b506101dd6101d836600461154f565b610597565b6040516001600160a01b03909116815260200161017d565b34801561020157600080fd5b5061014f61021036600461157f565b6105be565b34801561022157600080fd5b5061014f6102303660046115a9565b6106d8565b34801561024157600080fd5b5061014f6102503660046115a9565b610709565b34801561026157600080fd5b506101dd61027036600461154f565b610724565b34801561028157600080fd5b506102956102903660046115e5565b610784565b60405190815260200161017d565b3480156102af57600080fd5b5061014f61080a565b3480156102c457600080fd5b506007546001600160a01b03166101dd565b3480156102e257600080fd5b5061019b61081e565b3480156102f757600080fd5b5061014f610306366004611600565b61082d565b6102956103193660046115e5565b61083c565b34801561032a57600080fd5b5061014f610948565b34801561033f57600080fd5b5061014f61034e3660046116c8565b61096b565b34801561035f57600080fd5b5061019b61036e36600461154f565b6109a3565b34801561037f57600080fd5b5061017161038e366004611744565b610a65565b34801561039f57600080fd5b506102956103ae366004611797565b610a93565b3480156103bf57600080fd5b5061014f6103ce3660046115e5565b610b69565b6103db610ce3565b600d6103e882848361188b565b50600954600b546040516001600160a01b039092169163eaf5d04e91309161041990600a90889088906020016119bf565b6040516020818303038152906040526040518463ffffffff1660e01b815260040161044693929190611a31565b600060405180830381600087803b15801561046057600080fd5b505af1158015610474573d6000803e3d6000fd5b505050505050565b60006001600160e01b031982166380ac58cd60e01b14806104ad57506001600160e01b03198216635b5e139f60e01b145b806104c857506301ffc9a760e01b6001600160e01b03198316145b92915050565b606060006104da610d3d565b905080600a6040516020016104f0929190611a61565b60405160208183030381529060405291505090565b6060600080546105149061180b565b80601f01602080910402602001604051908101604052809291908181526020018280546105409061180b565b801561058d5780601f106105625761010080835404028352916020019161058d565b820191906000526020600020905b81548152906001019060200180831161057057829003601f168201915b5050505050905090565b60006105a282610d4c565b506000908152600460205260409020546001600160a01b031690565b60006105c982610724565b9050806001600160a01b0316836001600160a01b03160361063b5760405162461bcd60e51b815260206004820152602160248201527f4552433732313a20617070726f76616c20746f2063757272656e74206f776e656044820152603960f91b60648201526084015b60405180910390fd5b336001600160a01b038216148061065757506106578133610a65565b6106c95760405162461bcd60e51b815260206004820152603e60248201527f4552433732313a20617070726f76652063616c6c6572206973206e6f7420746f60448201527f6b656e206f776e6572206e6f7220617070726f76656420666f7220616c6c00006064820152608401610632565b6106d38383610dab565b505050565b6106e23382610e19565b6106fe5760405162461bcd60e51b815260040161063290611a9e565b6106d3838383610e77565b6106d38383836040518060200160405280600081525061096b565b6000818152600260205260408120546001600160a01b0316806104c85760405162461bcd60e51b8152602060048201526018602482015277115490cdcc8c4e881a5b9d985b1a59081d1bdad95b88125160421b6044820152606401610632565b60006001600160a01b0382166107ee5760405162461bcd60e51b815260206004820152602960248201527f4552433732313a2061646472657373207a65726f206973206e6f7420612076616044820152683634b21037bbb732b960b91b6064820152608401610632565b506001600160a01b031660009081526003602052604090205490565b610812610ce3565b61081c6000611013565b565b6060600180546105149061180b565b610838338383611065565b5050565b6000610846610ce3565b600980546001600160a01b0319166001600160a01b038416908117909155633a9151b030600c61087546610be2565b604051602001610886929190611aec565b6040516020818303038152906040526040518363ffffffff1660e01b81526004016108b2929190611b74565b6020604051808303816000875af11580156108d1573d6000803e3d6000fd5b505050506040513d601f19601f820116820180604052508101906108f59190611b98565b600b55600c61090346610be2565b61090e600b54610be2565b60405160200161092093929190611bb1565b604051602081830303815290604052600a908161093d9190611c00565b5050600b545b919050565b61081c60405180604001604052806002815260200161686960f01b815250611133565b6109753383610e19565b6109915760405162461bcd60e51b815260040161063290611a9e565b61099d84848484611176565b50505050565b6000818152600260205260409020546060906001600160a01b0316610a245760405162461bcd60e51b815260206004820152603160248201527f45524337323155524953746f726167653a2055524920717565727920666f72206044820152703737b732bc34b9ba32b73a103a37b5b2b760791b6064820152608401610632565b6000610a2e610d3d565b905080600a610a3c85610be2565b604051602001610a4e93929190611cc0565b604051602081830303815290604052915050919050565b6001600160a01b03918216600090815260056020908152604080832093909416825291909152205460ff1690565b600080610a9f60085490565b600954600b549192506001600160a01b03169063eaf5d04e903090600a610ac586610be2565b8989604051602001610ada9493929190611db5565b6040516020818303038152906040526040518463ffffffff1660e01b8152600401610b0793929190611a31565b600060405180830381600087803b158015610b2157600080fd5b505af1158015610b35573d6000803e3d6000fd5b50505050610b538582604051806020016040528060008152506111a9565b610b61600880546001019055565b949350505050565b610b71610ce3565b6001600160a01b038116610bd65760405162461bcd60e51b815260206004820152602660248201527f4f776e61626c653a206e6577206f776e657220697320746865207a65726f206160448201526564647265737360d01b6064820152608401610632565b610bdf81611013565b50565b606081600003610c095750506040805180820190915260018152600360fc1b602082015290565b8160005b8115610c335780610c1d81611e8f565b9150610c2c9050600a83611ebe565b9150610c0d565b60008167ffffffffffffffff811115610c4e57610c4e61163c565b6040519080825280601f01601f191660200182016040528015610c78576020820181803683370190505b5090505b8415610b6157610c8d600183611ed2565b9150610c9a600a86611ee5565b610ca5906030611ef9565b60f81b818381518110610cba57610cba611f0c565b60200101906001600160f81b031916908160001a905350610cdc600a86611ebe565b9450610c7c565b6007546001600160a01b0316331461081c5760405162461bcd60e51b815260206004820181905260248201527f4f776e61626c653a2063616c6c6572206973206e6f7420746865206f776e65726044820152606401610632565b6060600e80546105149061180b565b6000818152600260205260409020546001600160a01b0316610bdf5760405162461bcd60e51b8152602060048201526018602482015277115490cdcc8c4e881a5b9d985b1a59081d1bdad95b88125160421b6044820152606401610632565b600081815260046020526040902080546001600160a01b0319166001600160a01b0384169081179091558190610de082610724565b6001600160a01b03167f8c5be1e5ebec7d5bd14f71427d1e84f3dd0314c0f7b2291e5b200ac8c7c3b92560405160405180910390a45050565b600080610e2583610724565b9050806001600160a01b0316846001600160a01b03161480610e4c5750610e4c8185610a65565b80610b615750836001600160a01b0316610e6584610597565b6001600160a01b031614949350505050565b826001600160a01b0316610e8a82610724565b6001600160a01b031614610eee5760405162461bcd60e51b815260206004820152602560248201527f4552433732313a207472616e736665722066726f6d20696e636f72726563742060448201526437bbb732b960d91b6064820152608401610632565b6001600160a01b038216610f505760405162461bcd60e51b8152602060048201526024808201527f4552433732313a207472616e7366657220746f20746865207a65726f206164646044820152637265737360e01b6064820152608401610632565b610f5b600082610dab565b6001600160a01b0383166000908152600360205260408120805460019290610f84908490611ed2565b90915550506001600160a01b0382166000908152600360205260408120805460019290610fb2908490611ef9565b909155505060008181526002602052604080822080546001600160a01b0319166001600160a01b0386811691821790925591518493918716917fddf252ad1be2c89b69c2b068fc378daa952ba7f163c4a11628f55a4df523b3ef91a4505050565b600780546001600160a01b038381166001600160a01b0319831681179093556040519116919082907f8be0079c531659141344cd1fd0a4f28419497f9722a3daafe3b4186f6b6457e090600090a35050565b816001600160a01b0316836001600160a01b0316036110c65760405162461bcd60e51b815260206004820152601960248201527f4552433732313a20617070726f766520746f2063616c6c6572000000000000006044820152606401610632565b6001600160a01b03838116600081815260056020908152604080832094871680845294825291829020805460ff191686151590811790915591519182527f17307eab39ab6107e8899845ad3d59bd9653f200f220920489ca2b5937696c31910160405180910390a3505050565b610bdf81604051602401611147919061153c565b60408051601f198184030181529190526020810180516001600160e01b031663104c13eb60e21b1790526111dc565b611181848484610e77565b61118d848484846111fd565b61099d5760405162461bcd60e51b815260040161063290611f22565b6111b383836112fe565b6111c060008484846111fd565b6106d35760405162461bcd60e51b815260040161063290611f22565b80516a636f6e736f6c652e6c6f67602083016000808483855afa5050505050565b60006001600160a01b0384163b156112f357604051630a85bd0160e11b81526001600160a01b0385169063150b7a0290611241903390899088908890600401611f74565b6020604051808303816000875af192505050801561127c575060408051601f3d908101601f1916820190925261127991810190611fb1565b60015b6112d9573d8080156112aa576040519150601f19603f3d011682016040523d82523d6000602084013e6112af565b606091505b5080516000036112d15760405162461bcd60e51b815260040161063290611f22565b805181602001fd5b6001600160e01b031916630a85bd0160e11b149050610b61565b506001949350505050565b6001600160a01b0382166113545760405162461bcd60e51b815260206004820181905260248201527f4552433732313a206d696e7420746f20746865207a65726f20616464726573736044820152606401610632565b6000818152600260205260409020546001600160a01b0316156113b95760405162461bcd60e51b815260206004820152601c60248201527f4552433732313a20746f6b656e20616c7265616479206d696e746564000000006044820152606401610632565b6001600160a01b03821660009081526003602052604081208054600192906113e2908490611ef9565b909155505060008181526002602052604080822080546001600160a01b0319166001600160a01b03861690811790915590518392907fddf252ad1be2c89b69c2b068fc378daa952ba7f163c4a11628f55a4df523b3ef908290a45050565b6000806020838503121561145357600080fd5b823567ffffffffffffffff8082111561146b57600080fd5b818501915085601f83011261147f57600080fd5b81358181111561148e57600080fd5b8660208285010111156114a057600080fd5b60209290920196919550909350505050565b6001600160e01b031981168114610bdf57600080fd5b6000602082840312156114da57600080fd5b81356114e5816114b2565b9392505050565b60005b838110156115075781810151838201526020016114ef565b50506000910152565b600081518084526115288160208601602086016114ec565b601f01601f19169290920160200192915050565b6020815260006114e56020830184611510565b60006020828403121561156157600080fd5b5035919050565b80356001600160a01b038116811461094357600080fd5b6000806040838503121561159257600080fd5b61159b83611568565b946020939093013593505050565b6000806000606084860312156115be57600080fd5b6115c784611568565b92506115d560208501611568565b9150604084013590509250925092565b6000602082840312156115f757600080fd5b6114e582611568565b6000806040838503121561161357600080fd5b61161c83611568565b91506020830135801515811461163157600080fd5b809150509250929050565b634e487b7160e01b600052604160045260246000fd5b600067ffffffffffffffff8084111561166d5761166d61163c565b604051601f8501601f19908116603f011681019082821181831017156116955761169561163c565b816040528093508581528686860111156116ae57600080fd5b858560208301376000602087830101525050509392505050565b600080600080608085870312156116de57600080fd5b6116e785611568565b93506116f560208601611568565b925060408501359150606085013567ffffffffffffffff81111561171857600080fd5b8501601f8101871361172957600080fd5b61173887823560208401611652565b91505092959194509250565b6000806040838503121561175757600080fd5b61176083611568565b915061176e60208401611568565b90509250929050565b600082601f83011261178857600080fd5b6114e583833560208501611652565b6000806000606084860312156117ac57600080fd5b6117b584611568565b9250602084013567ffffffffffffffff808211156117d257600080fd5b6117de87838801611777565b935060408601359150808211156117f457600080fd5b5061180186828701611777565b9150509250925092565b600181811c9082168061181f57607f821691505b60208210810361183f57634e487b7160e01b600052602260045260246000fd5b50919050565b601f8211156106d357600081815260208120601f850160051c8101602086101561186c5750805b601f850160051c820191505b8181101561047457828155600101611878565b67ffffffffffffffff8311156118a3576118a361163c565b6118b7836118b1835461180b565b83611845565b6000601f8411600181146118eb57600085156118d35750838201355b600019600387901b1c1916600186901b178355611945565b600083815260209020601f19861690835b8281101561191c57868501358255602094850194600190920191016118fc565b50868210156119395760001960f88860031b161c19848701351681555b505060018560011b0183555b5050505050565b600081546119598161180b565b600182811680156119715760018114611986576119b5565b60ff19841687528215158302870194506119b5565b8560005260208060002060005b858110156119ac5781548a820152908401908201611993565b50505082870194505b5050505092915050565b6603ab83230ba32960cd1b815260006119db600783018661194c565b7401039b2ba1032bc3a32b93730b62fb634b735901e9605d1b815283856015830137701f1f09cfdd1bdad95b92590f49df1f1a59607a1b930160158101939093525050603b60f81b602682015260270192915050565b60018060a01b0384168152826020820152606060408201526000611a586060830184611510565b95945050505050565b60008351611a738184602088016114ec565b73053454c4543542532302a25323046524f4d2532360641b908301908152611a58601482018561194c565b6020808252602e908201527f4552433732313a2063616c6c6572206973206e6f7420746f6b656e206f776e6560408201526d1c881b9bdc88185c1c1c9bdd995960921b606082015260800190565b6c021a922a0aa22902a20a126229609d1b81526000611b0e600d83018561194c565b605f60f81b81528351611b288160018401602088016114ec565b7f2028696420696e742c20636572616d69635f6c696e6b20746578742c20697066600192909101918201526c735f6c696e6b2074657874293b60981b6021820152602e01949350505050565b6001600160a01b0383168152604060208201819052600090610b6190830184611510565b600060208284031215611baa57600080fd5b5051919050565b6000611bbd828661194c565b605f60f81b8082528551611bd8816001850160208a016114ec565b60019201918201528351611bf38160028401602088016114ec565b0160020195945050505050565b815167ffffffffffffffff811115611c1a57611c1a61163c565b611c2e81611c28845461180b565b84611845565b602080601f831160018114611c635760008415611c4b5750858301515b600019600386901b1c1916600185901b178555610474565b600085815260208120601f198616915b82811015611c9257888601518255948401946001909101908401611c73565b5085821015611cb05787850151600019600388901b60f8161c191681555b5050505050600190811b01905550565b60008451611cd28184602089016114ec565b7f53454c4543542532306a736f6e5f6f626a6563742825323769642532372c69649083019081527f2c25323765787465726e616c5f6c696e6b2532372c65787465726e616c5f6c6960208201527f6e6b2c253237782532372c782c253237792532372c792925323061732532306d60408201526c065746125323046524f4d25323609c1b6060820152611d68606d82018661194c565b90506d253230574845524525323069643d60901b81528351611d9181600e8401602088016114ec565b69099b5bd9194f5b1a5cdd60b21b600e929091019182015260180195945050505050565b6b024a729a2a92a1024a72a27960a51b81526000611dd6600c83018761194c565b7f202869642c20636572616d69635f6c696e6b2c20697066735f6c696e6b29205681526608298aa8aa640560cb1b60208201528551611e1c816027840160208a016114ec565b808201915050622c202760e81b8060278301528551611e4281602a850160208a016114ec565b602a9201918201528351611e5d81602d8401602088016114ec565b602760f81b602d9290910191820152602e019695505050505050565b634e487b7160e01b600052601160045260246000fd5b600060018201611ea157611ea1611e79565b5060010190565b634e487b7160e01b600052601260045260246000fd5b600082611ecd57611ecd611ea8565b500490565b818103818111156104c8576104c8611e79565b600082611ef457611ef4611ea8565b500690565b808201808211156104c8576104c8611e79565b634e487b7160e01b600052603260045260246000fd5b60208082526032908201527f4552433732313a207472616e7366657220746f206e6f6e20455243373231526560408201527131b2b4bb32b91034b6b83632b6b2b73a32b960711b606082015260800190565b6001600160a01b0385811682528416602082015260408101839052608060608201819052600090611fa790830184611510565b9695505050505050565b600060208284031215611fc357600080fd5b81516114e5816114b256fea2646970667358221220d906738aef2f54f00747f64dfb414ec57e36cc65a4cdac4b8038f95db74c09f764736f6c6343000810003368747470733a2f2f746573746e65742e7461626c656c616e642e6e6574776f726b2f71756572793f733d",
	"linkReferences": {},
	"deployedLinkReferences": {}
}